{
  "_format": "hh-sol-artifact-1",
  "contractName": "NFTMarketplace",
  "sourceName": "contracts/NFTMarketplace.sol",
  "abi": [
    {
      "anonymous": false,
      "inputs": [
        {
          "indexed": false,
          "internalType": "address",
          "name": "nftAddress",
          "type": "address"
        },
        {
          "indexed": false,
          "internalType": "uint256",
          "name": "tokenId",
          "type": "uint256"
        },
        {
          "indexed": false,
          "internalType": "address",
          "name": "seller",
          "type": "address"
        }
      ],
      "name": "ListingCancelled",
      "type": "event"
    },
    {
      "anonymous": false,
      "inputs": [
        {
          "indexed": false,
          "internalType": "address",
          "name": "nftAddress",
          "type": "address"
        },
        {
          "indexed": false,
          "internalType": "uint256",
          "name": "tokenId",
          "type": "uint256"
        },
        {
          "indexed": false,
          "internalType": "uint256",
          "name": "price",
          "type": "uint256"
        },
        {
          "indexed": false,
          "internalType": "address",
          "name": "seller",
          "type": "address"
        }
      ],
      "name": "ListingCreated",
      "type": "event"
    },
    {
      "anonymous": false,
      "inputs": [
        {
          "indexed": false,
          "internalType": "address",
          "name": "nftAddress",
          "type": "address"
        },
        {
          "indexed": false,
          "internalType": "uint256",
          "name": "tokenId",
          "type": "uint256"
        },
        {
          "indexed": false,
          "internalType": "address",
          "name": "seller",
          "type": "address"
        },
        {
          "indexed": false,
          "internalType": "address",
          "name": "buyer",
          "type": "address"
        }
      ],
      "name": "ListingPurchased",
      "type": "event"
    },
    {
      "anonymous": false,
      "inputs": [
        {
          "indexed": false,
          "internalType": "address",
          "name": "nftAddress",
          "type": "address"
        },
        {
          "indexed": false,
          "internalType": "uint256",
          "name": "tokenId",
          "type": "uint256"
        },
        {
          "indexed": false,
          "internalType": "uint256",
          "name": "newPrice",
          "type": "uint256"
        },
        {
          "indexed": false,
          "internalType": "address",
          "name": "seller",
          "type": "address"
        }
      ],
      "name": "ListingUpdated",
      "type": "event"
    },
    {
      "inputs": [
        {
          "internalType": "address",
          "name": "nftAddress",
          "type": "address"
        },
        {
          "internalType": "uint256",
          "name": "tokenId",
          "type": "uint256"
        }
      ],
      "name": "cancelListing",
      "outputs": [],
      "stateMutability": "nonpayable",
      "type": "function"
    },
    {
      "inputs": [
        {
          "internalType": "address",
          "name": "nftAddress",
          "type": "address"
        },
        {
          "internalType": "uint256",
          "name": "tokenId",
          "type": "uint256"
        },
        {
          "internalType": "uint256",
          "name": "price",
          "type": "uint256"
        }
      ],
      "name": "createListing",
      "outputs": [],
      "stateMutability": "nonpayable",
      "type": "function"
    },
    {
      "inputs": [
        {
          "internalType": "address",
          "name": "",
          "type": "address"
        },
        {
          "internalType": "uint256",
          "name": "",
          "type": "uint256"
        }
      ],
      "name": "listings",
      "outputs": [
        {
          "internalType": "uint256",
          "name": "price",
          "type": "uint256"
        },
        {
          "internalType": "address",
          "name": "seller",
          "type": "address"
        }
      ],
      "stateMutability": "view",
      "type": "function"
    },
    {
      "inputs": [
        {
          "internalType": "address",
          "name": "nftAddress",
          "type": "address"
        },
        {
          "internalType": "uint256",
          "name": "tokenId",
          "type": "uint256"
        }
      ],
      "name": "purchaseListing",
      "outputs": [],
      "stateMutability": "payable",
      "type": "function"
    },
    {
      "inputs": [
        {
          "internalType": "address",
          "name": "nftAddress",
          "type": "address"
        },
        {
          "internalType": "uint256",
          "name": "tokenId",
          "type": "uint256"
        },
        {
          "internalType": "uint256",
          "name": "newPrice",
          "type": "uint256"
        }
      ],
      "name": "updateListing",
      "outputs": [],
      "stateMutability": "nonpayable",
      "type": "function"
    }
  ],
  "bytecode": "0x608060405234801561001057600080fd5b5061150a806100206000396000f3fe6080604052600436106100495760003560e01c806207df301461004e57806324780c561461008c578063a7fc91b9146100b5578063b2ddee06146100d1578063f772adf1146100fa575b600080fd5b34801561005a57600080fd5b5061007560048036038101906100709190610ecc565b610123565b604051610083929190610f2a565b60405180910390f35b34801561009857600080fd5b506100b360048036038101906100ae9190610f53565b610174565b005b6100cf60048036038101906100ca9190610ecc565b6105e9565b005b3480156100dd57600080fd5b506100f860048036038101906100f39190610ecc565b610971565b005b34801561010657600080fd5b50610121600480360381019061011c9190610f53565b610bc4565b005b6000602052816000526040600020602052806000526040600020600091509150508060000154908060010160009054906101000a900473ffffffffffffffffffffffffffffffffffffffff16905082565b828260008060008473ffffffffffffffffffffffffffffffffffffffff1673ffffffffffffffffffffffffffffffffffffffff1681526020019081526020016000206000838152602001908152602001600020600001541461020b576040517f08c379a000000000000000000000000000000000000000000000000000000000815260040161020290611003565b60405180910390fd5b84843373ffffffffffffffffffffffffffffffffffffffff168273ffffffffffffffffffffffffffffffffffffffff16636352211e836040518263ffffffff1660e01b815260040161025d9190611023565b60206040518083038186803b15801561027557600080fd5b505afa158015610289573d6000803e3d6000fd5b505050506040513d601f19601f820116820180604052508101906102ad9190611053565b73ffffffffffffffffffffffffffffffffffffffff1614610303576040517f08c379a00000000000000000000000000000000000000000000000000000000081526004016102fa906110cc565b60405180910390fd5b6000851015610347576040517f08c379a000000000000000000000000000000000000000000000000000000000815260040161033e90611138565b60405180910390fd5b60008790508073ffffffffffffffffffffffffffffffffffffffff1663e985e9c533306040518363ffffffff1660e01b8152600401610387929190611158565b60206040518083038186803b15801561039f57600080fd5b505afa1580156103b3573d6000803e3d6000fd5b505050506040513d601f19601f820116820180604052508101906103d791906111b9565b8061049557503073ffffffffffffffffffffffffffffffffffffffff168173ffffffffffffffffffffffffffffffffffffffff1663081812fc896040518263ffffffff1660e01b815260040161042d9190611023565b60206040518083038186803b15801561044557600080fd5b505afa158015610459573d6000803e3d6000fd5b505050506040513d601f19601f8201168201806040525081019061047d9190611053565b73ffffffffffffffffffffffffffffffffffffffff16145b6104d4576040517f08c379a00000000000000000000000000000000000000000000000000000000081526004016104cb90611232565b60405180910390fd5b60405180604001604052808781526020013373ffffffffffffffffffffffffffffffffffffffff168152506000808a73ffffffffffffffffffffffffffffffffffffffff1673ffffffffffffffffffffffffffffffffffffffff16815260200190815260200160002060008981526020019081526020016000206000820151816000015560208201518160010160006101000a81548173ffffffffffffffffffffffffffffffffffffffff021916908373ffffffffffffffffffffffffffffffffffffffff1602179055509050507fdc801191e0c92935648f61c8e3d0cd8eac1d060269ddb920487d02ab0be69e7d888888336040516105d79493929190611252565b60405180910390a15050505050505050565b818160008060008473ffffffffffffffffffffffffffffffffffffffff1673ffffffffffffffffffffffffffffffffffffffff16815260200190815260200160002060008381526020019081526020016000206000015411610680576040517f08c379a0000000000000000000000000000000000000000000000000000000008152600401610677906112e3565b60405180910390fd5b60008060008673ffffffffffffffffffffffffffffffffffffffff1673ffffffffffffffffffffffffffffffffffffffff1681526020019081526020016000206000858152602001908152602001600020604051806040016040529081600082015481526020016001820160009054906101000a900473ffffffffffffffffffffffffffffffffffffffff1673ffffffffffffffffffffffffffffffffffffffff1673ffffffffffffffffffffffffffffffffffffffff1681525050905080600001513414610784576040517f08c379a000000000000000000000000000000000000000000000000000000000815260040161077b9061134f565b60405180910390fd5b8473ffffffffffffffffffffffffffffffffffffffff166342842e0e826020015133876040518463ffffffff1660e01b81526004016107c59392919061136f565b600060405180830381600087803b1580156107df57600080fd5b505af11580156107f3573d6000803e3d6000fd5b505050506000816020015173ffffffffffffffffffffffffffffffffffffffff1634604051610821906113d7565b60006040518083038185875af1925050503d806000811461085e576040519150601f19603f3d011682016040523d82523d6000602084013e610863565b606091505b50509050806108a7576040517f08c379a000000000000000000000000000000000000000000000000000000000815260040161089e90611438565b60405180910390fd5b6000808773ffffffffffffffffffffffffffffffffffffffff1673ffffffffffffffffffffffffffffffffffffffff16815260200190815260200160002060008681526020019081526020016000206000808201600090556001820160006101000a81549073ffffffffffffffffffffffffffffffffffffffff021916905550507fab7369fca6913c40e2bf7144b586a1a0e894bd32f5f9e74128cd89fb54f7bf9486868460200151336040516109619493929190611458565b60405180910390a1505050505050565b818160008060008473ffffffffffffffffffffffffffffffffffffffff1673ffffffffffffffffffffffffffffffffffffffff16815260200190815260200160002060008381526020019081526020016000206000015411610a08576040517f08c379a00000000000000000000000000000000000000000000000000000000081526004016109ff906112e3565b60405180910390fd5b83833373ffffffffffffffffffffffffffffffffffffffff168273ffffffffffffffffffffffffffffffffffffffff16636352211e836040518263ffffffff1660e01b8152600401610a5a9190611023565b60206040518083038186803b158015610a7257600080fd5b505afa158015610a86573d6000803e3d6000fd5b505050506040513d601f19601f82011682018060405250810190610aaa9190611053565b73ffffffffffffffffffffffffffffffffffffffff1614610b00576040517f08c379a0000000000000000000000000000000000000000000000000000000008152600401610af7906110cc565b60405180910390fd5b6000808773ffffffffffffffffffffffffffffffffffffffff1673ffffffffffffffffffffffffffffffffffffffff16815260200190815260200160002060008681526020019081526020016000206000808201600090556001820160006101000a81549073ffffffffffffffffffffffffffffffffffffffff021916905550507f8526cb6d400b8a551983c99e6d6fb1775b7a0deeb5d1e39d3ee65bc59e5eac27868633604051610bb49392919061149d565b60405180910390a1505050505050565b828260008060008473ffffffffffffffffffffffffffffffffffffffff1673ffffffffffffffffffffffffffffffffffffffff16815260200190815260200160002060008381526020019081526020016000206000015411610c5b576040517f08c379a0000000000000000000000000000000000000000000000000000000008152600401610c52906112e3565b60405180910390fd5b84843373ffffffffffffffffffffffffffffffffffffffff168273ffffffffffffffffffffffffffffffffffffffff16636352211e836040518263ffffffff1660e01b8152600401610cad9190611023565b60206040518083038186803b158015610cc557600080fd5b505afa158015610cd9573d6000803e3d6000fd5b505050506040513d601f19601f82011682018060405250810190610cfd9190611053565b73ffffffffffffffffffffffffffffffffffffffff1614610d53576040517f08c379a0000000000000000000000000000000000000000000000000000000008152600401610d4a906110cc565b60405180910390fd5b60008511610d96576040517f08c379a0000000000000000000000000000000000000000000000000000000008152600401610d8d90611138565b60405180910390fd5b846000808973ffffffffffffffffffffffffffffffffffffffff1673ffffffffffffffffffffffffffffffffffffffff1681526020019081526020016000206000888152602001908152602001600020600001819055507f3199bfdff711ec1ab8ab8449dc3b8d3fa30a59861a734a9d26f7b1a38162df7587878733604051610e229493929190611252565b60405180910390a150505050505050565b600080fd5b600073ffffffffffffffffffffffffffffffffffffffff82169050919050565b6000610e6382610e38565b9050919050565b610e7381610e58565b8114610e7e57600080fd5b50565b600081359050610e9081610e6a565b92915050565b6000819050919050565b610ea981610e96565b8114610eb457600080fd5b50565b600081359050610ec681610ea0565b92915050565b60008060408385031215610ee357610ee2610e33565b5b6000610ef185828601610e81565b9250506020610f0285828601610eb7565b9150509250929050565b610f1581610e96565b82525050565b610f2481610e58565b82525050565b6000604082019050610f3f6000830185610f0c565b610f4c6020830184610f1b565b9392505050565b600080600060608486031215610f6c57610f6b610e33565b5b6000610f7a86828701610e81565b9350506020610f8b86828701610eb7565b9250506040610f9c86828701610eb7565b9150509250925092565b600082825260208201905092915050565b7f4d524b543a20416c7265616479206c6973746564210000000000000000000000600082015250565b6000610fed601583610fa6565b9150610ff882610fb7565b602082019050919050565b6000602082019050818103600083015261101c81610fe0565b9050919050565b60006020820190506110386000830184610f0c565b92915050565b60008151905061104d81610e6a565b92915050565b60006020828403121561106957611068610e33565b5b60006110778482850161103e565b91505092915050565b7f4d524b543a204e6f7420746865204f776e657221000000000000000000000000600082015250565b60006110b6601483610fa6565b91506110c182611080565b602082019050919050565b600060208201905081810360008301526110e5816110a9565b9050919050565b7f4d524b543a205072696365206d757374206265203e2030000000000000000000600082015250565b6000611122601783610fa6565b915061112d826110ec565b602082019050919050565b6000602082019050818103600083015261115181611115565b9050919050565b600060408201905061116d6000830185610f1b565b61117a6020830184610f1b565b9392505050565b60008115159050919050565b61119681611181565b81146111a157600080fd5b50565b6000815190506111b38161118d565b92915050565b6000602082840312156111cf576111ce610e33565b5b60006111dd848285016111a4565b91505092915050565b7f4d524b543a204e6f20617070726f76616c20666f72204e465421000000000000600082015250565b600061121c601a83610fa6565b9150611227826111e6565b602082019050919050565b6000602082019050818103600083015261124b8161120f565b9050919050565b60006080820190506112676000830187610f1b565b6112746020830186610f0c565b6112816040830185610f0c565b61128e6060830184610f1b565b95945050505050565b7f4d524b543a204e6f74206c697374656400000000000000000000000000000000600082015250565b60006112cd601083610fa6565b91506112d882611297565b602082019050919050565b600060208201905081810360008301526112fc816112c0565b9050919050565b7f4d524b543a20496e636f72726563742045746820537570706c69656421000000600082015250565b6000611339601d83610fa6565b915061134482611303565b602082019050919050565b600060208201905081810360008301526113688161132c565b9050919050565b60006060820190506113846000830186610f1b565b6113916020830185610f1b565b61139e6040830184610f0c565b949350505050565b600081905092915050565b50565b60006113c16000836113a6565b91506113cc826113b1565b600082019050919050565b60006113e2826113b4565b9150819050919050565b7f4661696c656420746f207472616e736665722065746800000000000000000000600082015250565b6000611422601683610fa6565b915061142d826113ec565b602082019050919050565b6000602082019050818103600083015261145181611415565b9050919050565b600060808201905061146d6000830187610f1b565b61147a6020830186610f0c565b6114876040830185610f1b565b6114946060830184610f1b565b95945050505050565b60006060820190506114b26000830186610f1b565b6114bf6020830185610f0c565b6114cc6040830184610f1b565b94935050505056fea2646970667358221220aeb85d873c4c620465e1a42ad480e14ae9b074e3d97cf809dec06c9c8d73398964736f6c63430008090033",
  "linkReferences": {},
  "deployedLinkReferences": {}
}